{
  "_format": "hh-sol-artifact-1",
  "contractName": "ProofOfWorkout",
  "sourceName": "contracts/ProofOfWorkout.sol",
  "abi": [
    {
      "inputs": [],
      "stateMutability": "nonpayable",
      "type": "constructor"
    },
    {
      "anonymous": false,
      "inputs": [
        {
          "indexed": true,
          "internalType": "address",
          "name": "user",
          "type": "address"
        }
      ],
      "name": "ChallengeJoined",
      "type": "event"
    },
    {
      "anonymous": false,
      "inputs": [
        {
          "indexed": true,
          "internalType": "address",
          "name": "user",
          "type": "address"
        },
        {
          "indexed": false,
          "internalType": "uint256",
          "name": "steps",
          "type": "uint256"
        },
        {
          "indexed": false,
          "internalType": "uint256",
          "name": "reward",
          "type": "uint256"
        }
      ],
      "name": "ProofSubmitted",
      "type": "event"
    },
    {
      "anonymous": false,
      "inputs": [
        {
          "indexed": true,
          "internalType": "address",
          "name": "user",
          "type": "address"
        },
        {
          "indexed": false,
          "internalType": "uint256",
          "name": "amount",
          "type": "uint256"
        }
      ],
      "name": "RewardsClaimed",
      "type": "event"
    },
    {
      "inputs": [],
      "name": "REWARD_PER_STEP",
      "outputs": [
        {
          "internalType": "uint256",
          "name": "",
          "type": "uint256"
        }
      ],
      "stateMutability": "view",
      "type": "function"
    },
    {
      "inputs": [],
      "name": "getRewards",
      "outputs": [
        {
          "internalType": "uint256",
          "name": "",
          "type": "uint256"
        }
      ],
      "stateMutability": "view",
      "type": "function"
    },
    {
      "inputs": [],
      "name": "getTotalSteps",
      "outputs": [
        {
          "internalType": "uint256",
          "name": "",
          "type": "uint256"
        }
      ],
      "stateMutability": "view",
      "type": "function"
    },
    {
      "inputs": [
        {
          "internalType": "address",
          "name": "user",
          "type": "address"
        }
      ],
      "name": "hasJoined",
      "outputs": [
        {
          "internalType": "bool",
          "name": "",
          "type": "bool"
        }
      ],
      "stateMutability": "view",
      "type": "function"
    },
    {
      "inputs": [],
      "name": "joinChallenge",
      "outputs": [],
      "stateMutability": "nonpayable",
      "type": "function"
    },
    {
      "inputs": [],
      "name": "owner",
      "outputs": [
        {
          "internalType": "address",
          "name": "",
          "type": "address"
        }
      ],
      "stateMutability": "view",
      "type": "function"
    },
    {
      "inputs": [
        {
          "internalType": "uint256",
          "name": "steps",
          "type": "uint256"
        }
      ],
      "name": "submitProof",
      "outputs": [],
      "stateMutability": "nonpayable",
      "type": "function"
    },
    {
      "inputs": [],
      "name": "withdraw",
      "outputs": [],
      "stateMutability": "nonpayable",
      "type": "function"
    },
    {
      "stateMutability": "payable",
      "type": "receive"
    }
  ],
  "bytecode": "0x608060405234801561001057600080fd5b50600080546001600160a01b0319163317905561062e806100326000396000f3fe60806040526004361061007f5760003560e01c8063869a5e2b1161004e578063869a5e2b146100f7578063877f4e12146101175780638942d0b3146101605780638da5cb5b1461017557600080fd5b80630572b0cc1461008b5780632aa70469146100b35780633ccfd60b146100c8578063745ba3a9146100df57600080fd5b3661008657005b600080fd5b34801561009757600080fd5b506100a06101ad565b6040519081526020015b60405180910390f35b3480156100bf57600080fd5b506100a06101fc565b3480156100d457600080fd5b506100dd610243565b005b3480156100eb57600080fd5b506100a0633b9aca0081565b34801561010357600080fd5b506100dd610112366004610543565b6102c6565b34801561012357600080fd5b5061015061013236600461055c565b6001600160a01b031660009081526001602052604090205460ff1690565b60405190151581526020016100aa565b34801561016c57600080fd5b506100dd610470565b34801561018157600080fd5b50600054610195906001600160a01b031681565b6040516001600160a01b0390911681526020016100aa565b3360009081526001602052604081205460ff166101e55760405162461bcd60e51b81526004016101dc9061058c565b60405180910390fd5b503360009081526001602052604090206002015490565b3360009081526001602052604081205460ff1661022b5760405162461bcd60e51b81526004016101dc9061058c565b50336000908152600160208190526040909120015490565b6000546001600160a01b031633146102895760405162461bcd60e51b81526020600482015260096024820152682737ba1037bbb732b960b91b60448201526064016101dc565b600080546040516001600160a01b03909116914780156108fc02929091818181858888f193505050501580156102c3573d6000803e3d6000fd5b50565b3360009081526001602052604090205460ff166102f55760405162461bcd60e51b81526004016101dc9061058c565b606481101580156103095750620f423f8111155b61034a5760405162461bcd60e51b81526020600482015260126024820152715374657073206f7574206f662072616e676560701b60448201526064016101dc565b3360009081526001602052604090206003015461036a90620119406105c8565b4210156103b95760405162461bcd60e51b815260206004820152601d60248201527f436f6f6c646f776e3a207375626d6974206f6e6365207065722032306800000060448201526064016101dc565b60006103c9633b9aca00836105e1565b336000908152600160208190526040822001805492935084929091906103f09084906105c8565b909155505033600090815260016020526040812060020180548392906104179084906105c8565b9091555050336000818152600160209081526040918290204260039091015581518581529081018490527f9ae9921810446180076c4a12d2e38eed95315c91f61bcab622dbe844fb9f3030910160405180910390a25050565b3360009081526001602052604090205460ff16156104c15760405162461bcd60e51b815260206004820152600e60248201526d105b1c9958591e481a9bda5b995960921b60448201526064016101dc565b336000818152600160208190526040808320805460ff19168317905560028054928301815583527f405787fa12a823e0f2b7631cc41b3ba8828b3321ca811111fa75cd3aa3bb5ace90910180546001600160a01b03191684179055517f83e84b06043e2925b80c5ef58c03ce7dd53f72f1468bbe40e1b3d2a0bc3400509190a2565b60006020828403121561055557600080fd5b5035919050565b60006020828403121561056e57600080fd5b81356001600160a01b038116811461058557600080fd5b9392505050565b6020808252600c908201526b139bdd08195b9c9bdb1b195960a21b604082015260600190565b634e487b7160e01b600052601160045260246000fd5b808201808211156105db576105db6105b2565b92915050565b80820281158282048414176105db576105db6105b256fea26469706673582212202dc531f0ecbc81dc05583fe6cce2e0eed864f72e9108f5862244d1018d60ed1e64736f6c63430008180033",
  "linkReferences": {},
  "deployedLinkReferences": {}
}